{
  "address": "0x5C933Ec7DFe088179b68362df93D5Cf5d7dd3414",
  "abi": [
    {
      "anonymous": false,
      "inputs": [
        {
          "indexed": false,
          "internalType": "uint256",
          "name": "appointmentId",
          "type": "uint256"
        },
        {
          "indexed": false,
          "internalType": "address",
          "name": "doctor",
          "type": "address"
        }
      ],
      "name": "AppointmentApproved",
      "type": "event"
    },
    {
      "anonymous": false,
      "inputs": [
        {
          "indexed": false,
          "internalType": "uint256",
          "name": "appointmentId",
          "type": "uint256"
        },
        {
          "indexed": false,
          "internalType": "address",
          "name": "doctor",
          "type": "address"
        }
      ],
      "name": "AppointmentDeclined",
      "type": "event"
    },
    {
      "anonymous": false,
      "inputs": [
        {
          "indexed": false,
          "internalType": "uint256",
          "name": "appointmentId",
          "type": "uint256"
        },
        {
          "indexed": false,
          "internalType": "address",
          "name": "patient",
          "type": "address"
        },
        {
          "indexed": false,
          "internalType": "address",
          "name": "doctor",
          "type": "address"
        },
        {
          "indexed": false,
          "internalType": "uint256",
          "name": "date",
          "type": "uint256"
        },
        {
          "indexed": false,
          "internalType": "string",
          "name": "reason",
          "type": "string"
        }
      ],
      "name": "AppointmentRequested",
      "type": "event"
    },
    {
      "inputs": [
        {
          "internalType": "uint256",
          "name": "",
          "type": "uint256"
        }
      ],
      "name": "appointments",
      "outputs": [
        {
          "internalType": "uint256",
          "name": "id",
          "type": "uint256"
        },
        {
          "internalType": "address",
          "name": "patient",
          "type": "address"
        },
        {
          "internalType": "address",
          "name": "doctor",
          "type": "address"
        },
        {
          "internalType": "uint256",
          "name": "date",
          "type": "uint256"
        },
        {
          "internalType": "string",
          "name": "reason",
          "type": "string"
        },
        {
          "internalType": "enum AppointmentRegistry.AppointmentStatus",
          "name": "status",
          "type": "uint8"
        }
      ],
      "stateMutability": "view",
      "type": "function"
    },
    {
      "inputs": [
        {
          "internalType": "uint256",
          "name": "appointmentId",
          "type": "uint256"
        }
      ],
      "name": "approveAppointment",
      "outputs": [],
      "stateMutability": "nonpayable",
      "type": "function"
    },
    {
      "inputs": [
        {
          "internalType": "uint256",
          "name": "appointmentId",
          "type": "uint256"
        }
      ],
      "name": "declineAppointment",
      "outputs": [],
      "stateMutability": "nonpayable",
      "type": "function"
    },
    {
      "inputs": [
        {
          "internalType": "address",
          "name": "",
          "type": "address"
        },
        {
          "internalType": "uint256",
          "name": "",
          "type": "uint256"
        }
      ],
      "name": "doctorAppointments",
      "outputs": [
        {
          "internalType": "uint256",
          "name": "",
          "type": "uint256"
        }
      ],
      "stateMutability": "view",
      "type": "function"
    },
    {
      "inputs": [
        {
          "internalType": "address",
          "name": "doctor",
          "type": "address"
        }
      ],
      "name": "getDoctorAppointments",
      "outputs": [
        {
          "components": [
            {
              "internalType": "uint256",
              "name": "id",
              "type": "uint256"
            },
            {
              "internalType": "address",
              "name": "patient",
              "type": "address"
            },
            {
              "internalType": "address",
              "name": "doctor",
              "type": "address"
            },
            {
              "internalType": "uint256",
              "name": "date",
              "type": "uint256"
            },
            {
              "internalType": "string",
              "name": "reason",
              "type": "string"
            },
            {
              "internalType": "enum AppointmentRegistry.AppointmentStatus",
              "name": "status",
              "type": "uint8"
            }
          ],
          "internalType": "struct AppointmentRegistry.Appointment[]",
          "name": "",
          "type": "tuple[]"
        }
      ],
      "stateMutability": "view",
      "type": "function"
    },
    {
      "inputs": [
        {
          "internalType": "address",
          "name": "patient",
          "type": "address"
        }
      ],
      "name": "getPatientAppointments",
      "outputs": [
        {
          "components": [
            {
              "internalType": "uint256",
              "name": "id",
              "type": "uint256"
            },
            {
              "internalType": "address",
              "name": "patient",
              "type": "address"
            },
            {
              "internalType": "address",
              "name": "doctor",
              "type": "address"
            },
            {
              "internalType": "uint256",
              "name": "date",
              "type": "uint256"
            },
            {
              "internalType": "string",
              "name": "reason",
              "type": "string"
            },
            {
              "internalType": "enum AppointmentRegistry.AppointmentStatus",
              "name": "status",
              "type": "uint8"
            }
          ],
          "internalType": "struct AppointmentRegistry.Appointment[]",
          "name": "",
          "type": "tuple[]"
        }
      ],
      "stateMutability": "view",
      "type": "function"
    },
    {
      "inputs": [],
      "name": "nextAppointmentId",
      "outputs": [
        {
          "internalType": "uint256",
          "name": "",
          "type": "uint256"
        }
      ],
      "stateMutability": "view",
      "type": "function"
    },
    {
      "inputs": [
        {
          "internalType": "address",
          "name": "",
          "type": "address"
        },
        {
          "internalType": "uint256",
          "name": "",
          "type": "uint256"
        }
      ],
      "name": "patientAppointments",
      "outputs": [
        {
          "internalType": "uint256",
          "name": "",
          "type": "uint256"
        }
      ],
      "stateMutability": "view",
      "type": "function"
    },
    {
      "inputs": [
        {
          "internalType": "address",
          "name": "doctor",
          "type": "address"
        },
        {
          "internalType": "uint256",
          "name": "date",
          "type": "uint256"
        },
        {
          "internalType": "string",
          "name": "reason",
          "type": "string"
        }
      ],
      "name": "requestAppointment",
      "outputs": [],
      "stateMutability": "nonpayable",
      "type": "function"
    }
  ],
  "transactionHash": "0x834b77287099c4a2741bbe8a2406ad929c56d3f6f0bc6b56a3f132db70f46288",
  "args": [],
  "numDeployments": 1,
  "solcInputHash": "ac1a6912f35ed3e1e7bca4b1cb2ca794",
  "bytecode": "0x608060405234801561001057600080fd5b506110a7806100206000396000f3fe608060405234801561001057600080fd5b50600436106100935760003560e01c80636a85de14116100665780636a85de141461010f57806389dcc4a2146101225780638e366c741461012b578063c45862e21461014b578063c5598c911461015e57600080fd5b8063064eac8a1461009857806312dc9013146100ad57806356f38b94146100db57806357cd46f5146100ee575b600080fd5b6100ab6100a6366004610b9f565b610171565b005b6100c06100bb366004610b9f565b610279565b6040516100d296959493929190610c36565b60405180910390f35b6100ab6100e9366004610ca5565b610348565b6101016100fc366004610d2c565b610591565b6040519081526020016100d2565b61010161011d366004610d2c565b6105c2565b61010160035481565b61013e610139366004610d56565b6105de565b6040516100d29190610d78565b6100ab610159366004610b9f565b610845565b61013e61016c366004610d56565b610940565b600081815260208190526040902060028101546001600160a01b031633146101f55760405162461bcd60e51b815260206004820152602c60248201527f4f6e6c792074686520646f63746f722063616e20617070726f7665207468697360448201526b08185c1c1bda5b9d1b595b9d60a21b60648201526084015b60405180910390fd5b6000600582015460ff16600281111561021057610210610bfe565b1461022d5760405162461bcd60e51b81526004016101ec90610e32565b60058101805460ff19166001179055604080518381523360208201527f84beffd54f5407544459b5beacd3e675291d775c7866cc5050b215d585d2879691015b60405180910390a15050565b6000602081905290815260409020805460018201546002830154600384015460048501805494956001600160a01b0394851695939094169391926102bc90610e7a565b80601f01602080910402602001604051908101604052809291908181526020018280546102e890610e7a565b80156103355780601f1061030a57610100808354040283529160200191610335565b820191906000526020600020905b81548152906001019060200180831161031857829003601f168201915b5050506005909301549192505060ff1686565b6001600160a01b0384166103975760405162461bcd60e51b8152602060048201526016602482015275496e76616c696420646f63746f72206164647265737360501b60448201526064016101ec565b4283116103e65760405162461bcd60e51b815260206004820152601c60248201527f446174652073686f756c6420626520696e20746865206675747572650000000060448201526064016101ec565b60038054600091826103f783610eb4565b9190505590506040518060c00160405280828152602001336001600160a01b03168152602001866001600160a01b0316815260200185815260200184848080601f016020809104026020016040519081016040528093929190818152602001838380828437600092018290525093855250506020909201915090526000828152602081815260409182902083518155908301516001820180546001600160a01b03199081166001600160a01b03938416179091559284015160028301805490941691161790915560608201516003820155608082015160048201906104dc9082610f40565b5060a082015160058201805460ff1916600183600281111561050057610500610bfe565b02179055505033600081815260016020818152604080842080548085018255908552828520018790556001600160a01b038b16845260028252808420805493840181558452922001849055517f51ea5cd5494ad7be73fa94bb099a24e5e42486523cc17d85a4ef7ea1727a1de392506105829184918990899089908990611000565b60405180910390a15050505050565b600260205281600052604060002081815481106105ad57600080fd5b90600052602060002001600091509150505481565b600160205281600052604060002081815481106105ad57600080fd5b6001600160a01b038116600090815260016020908152604080832080548251818502810185019093528083526060949383018282801561063d57602002820191906000526020600020905b815481526020019060010190808311610629575b505050505090506000815167ffffffffffffffff81111561066057610660610edb565b6040519080825280602002602001820160405280156106c657816020015b6106b36040805160c081018252600080825260208201819052918101829052606080820183905260808201529060a082015290565b81526020019060019003908161067e5790505b50905060005b825181101561083d576000808483815181106106ea576106ea61105b565b6020908102919091018101518252818101929092526040908101600020815160c0810183528154815260018201546001600160a01b03908116948201949094526002820154909316918301919091526003810154606083015260048101805460808401919061075890610e7a565b80601f016020809104026020016040519081016040528092919081815260200182805461078490610e7a565b80156107d15780601f106107a6576101008083540402835291602001916107d1565b820191906000526020600020905b8154815290600101906020018083116107b457829003601f168201915b5050509183525050600582015460209091019060ff1660028111156107f8576107f8610bfe565b600281111561080957610809610bfe565b8152505082828151811061081f5761081f61105b565b6020026020010181905250808061083590610eb4565b9150506106cc565b509392505050565b600081815260208190526040902060028101546001600160a01b031633146108c45760405162461bcd60e51b815260206004820152602c60248201527f4f6e6c792074686520646f63746f722063616e206465636c696e65207468697360448201526b08185c1c1bda5b9d1b595b9d60a21b60648201526084016101ec565b6000600582015460ff1660028111156108df576108df610bfe565b146108fc5760405162461bcd60e51b81526004016101ec90610e32565b60058101805460ff19166002179055604080518381523360208201527f8c2bf9b49ade55569ffaa03bdddeb40313c69f6f1bad9651be60ca47377cd467910161026d565b6001600160a01b038116600090815260026020908152604080832080548251818502810185019093528083526060949383018282801561099f57602002820191906000526020600020905b81548152602001906001019080831161098b575b505050505090506000815167ffffffffffffffff8111156109c2576109c2610edb565b604051908082528060200260200182016040528015610a2857816020015b610a156040805160c081018252600080825260208201819052918101829052606080820183905260808201529060a082015290565b8152602001906001900390816109e05790505b50905060005b825181101561083d57600080848381518110610a4c57610a4c61105b565b6020908102919091018101518252818101929092526040908101600020815160c0810183528154815260018201546001600160a01b039081169482019490945260028201549093169183019190915260038101546060830152600481018054608084019190610aba90610e7a565b80601f0160208091040260200160405190810160405280929190818152602001828054610ae690610e7a565b8015610b335780601f10610b0857610100808354040283529160200191610b33565b820191906000526020600020905b815481529060010190602001808311610b1657829003601f168201915b5050509183525050600582015460209091019060ff166002811115610b5a57610b5a610bfe565b6002811115610b6b57610b6b610bfe565b81525050828281518110610b8157610b8161105b565b60200260200101819052508080610b9790610eb4565b915050610a2e565b600060208284031215610bb157600080fd5b5035919050565b6000815180845260005b81811015610bde57602081850181015186830182015201610bc2565b506000602082860101526020601f19601f83011685010191505092915050565b634e487b7160e01b600052602160045260246000fd5b60038110610c3257634e487b7160e01b600052602160045260246000fd5b9052565b8681526001600160a01b038681166020830152851660408201526060810184905260c060808201819052600090610c6f90830185610bb8565b9050610c7e60a0830184610c14565b979650505050505050565b80356001600160a01b0381168114610ca057600080fd5b919050565b60008060008060608587031215610cbb57600080fd5b610cc485610c89565b935060208501359250604085013567ffffffffffffffff80821115610ce857600080fd5b818701915087601f830112610cfc57600080fd5b813581811115610d0b57600080fd5b886020828501011115610d1d57600080fd5b95989497505060200194505050565b60008060408385031215610d3f57600080fd5b610d4883610c89565b946020939093013593505050565b600060208284031215610d6857600080fd5b610d7182610c89565b9392505050565b60006020808301818452808551808352604092508286019150828160051b87010184880160005b83811015610e2457888303603f19018552815180518452878101516001600160a01b03908116898601528782015116878501526060808201519085015260808082015160c08287018190529190610df883880182610bb8565b9250505060a0808301519250610e1081870184610c14565b509588019593505090860190600101610d9f565b509098975050505050505050565b60208082526028908201527f4170706f696e746d656e74206973206e6f7420696e2027526571756573746564604082015267272073746174757360c01b606082015260800190565b600181811c90821680610e8e57607f821691505b602082108103610eae57634e487b7160e01b600052602260045260246000fd5b50919050565b600060018201610ed457634e487b7160e01b600052601160045260246000fd5b5060010190565b634e487b7160e01b600052604160045260246000fd5b601f821115610f3b57600081815260208120601f850160051c81016020861015610f185750805b601f850160051c820191505b81811015610f3757828155600101610f24565b5050505b505050565b815167ffffffffffffffff811115610f5a57610f5a610edb565b610f6e81610f688454610e7a565b84610ef1565b602080601f831160018114610fa35760008415610f8b5750858301515b600019600386901b1c1916600185901b178555610f37565b600085815260208120601f198616915b82811015610fd257888601518255948401946001909101908401610fb3565b5085821015610ff05787850151600019600388901b60f8161c191681555b5050505050600190811b01905550565b8681526001600160a01b038681166020830152851660408201526060810184905260a06080820181905281018290526000828460c0840137600060c0848401015260c0601f19601f8501168301019050979650505050505050565b634e487b7160e01b600052603260045260246000fdfea26469706673582212207f3180714da2c3d040fb8e582dc2574e04dc8dd7a2950c1ccbc901d6aebff7d664736f6c63430008140033",
  "devdoc": {
    "kind": "dev",
    "methods": {},
    "version": 1
  },
  "userdoc": {
    "kind": "user",
    "methods": {},
    "version": 1
  },
  "storageLayout": {
    "storage": [
      {
        "astId": 24,
        "contract": "contracts/AppointmentRegistry.sol:AppointmentRegistry",
        "label": "appointments",
        "offset": 0,
        "slot": "0",
        "type": "t_mapping(t_uint256,t_struct(Appointment)19_storage)"
      },
      {
        "astId": 29,
        "contract": "contracts/AppointmentRegistry.sol:AppointmentRegistry",
        "label": "patientAppointments",
        "offset": 0,
        "slot": "1",
        "type": "t_mapping(t_address,t_array(t_uint256)dyn_storage)"
      },
      {
        "astId": 34,
        "contract": "contracts/AppointmentRegistry.sol:AppointmentRegistry",
        "label": "doctorAppointments",
        "offset": 0,
        "slot": "2",
        "type": "t_mapping(t_address,t_array(t_uint256)dyn_storage)"
      },
      {
        "astId": 36,
        "contract": "contracts/AppointmentRegistry.sol:AppointmentRegistry",
        "label": "nextAppointmentId",
        "offset": 0,
        "slot": "3",
        "type": "t_uint256"
      }
    ],
    "types": {
      "t_address": {
        "encoding": "inplace",
        "label": "address",
        "numberOfBytes": "20"
      },
      "t_array(t_uint256)dyn_storage": {
        "base": "t_uint256",
        "encoding": "dynamic_array",
        "label": "uint256[]",
        "numberOfBytes": "32"
      },
      "t_enum(AppointmentStatus)5": {
        "encoding": "inplace",
        "label": "enum AppointmentRegistry.AppointmentStatus",
        "numberOfBytes": "1"
      },
      "t_mapping(t_address,t_array(t_uint256)dyn_storage)": {
        "encoding": "mapping",
        "key": "t_address",
        "label": "mapping(address => uint256[])",
        "numberOfBytes": "32",
        "value": "t_array(t_uint256)dyn_storage"
      },
      "t_mapping(t_uint256,t_struct(Appointment)19_storage)": {
        "encoding": "mapping",
        "key": "t_uint256",
        "label": "mapping(uint256 => struct AppointmentRegistry.Appointment)",
        "numberOfBytes": "32",
        "value": "t_struct(Appointment)19_storage"
      },
      "t_string_storage": {
        "encoding": "bytes",
        "label": "string",
        "numberOfBytes": "32"
      },
      "t_struct(Appointment)19_storage": {
        "encoding": "inplace",
        "label": "struct AppointmentRegistry.Appointment",
        "members": [
          {
            "astId": 7,
            "contract": "contracts/AppointmentRegistry.sol:AppointmentRegistry",
            "label": "id",
            "offset": 0,
            "slot": "0",
            "type": "t_uint256"
          },
          {
            "astId": 9,
            "contract": "contracts/AppointmentRegistry.sol:AppointmentRegistry",
            "label": "patient",
            "offset": 0,
            "slot": "1",
            "type": "t_address"
          },
          {
            "astId": 11,
            "contract": "contracts/AppointmentRegistry.sol:AppointmentRegistry",
            "label": "doctor",
            "offset": 0,
            "slot": "2",
            "type": "t_address"
          },
          {
            "astId": 13,
            "contract": "contracts/AppointmentRegistry.sol:AppointmentRegistry",
            "label": "date",
            "offset": 0,
            "slot": "3",
            "type": "t_uint256"
          },
          {
            "astId": 15,
            "contract": "contracts/AppointmentRegistry.sol:AppointmentRegistry",
            "label": "reason",
            "offset": 0,
            "slot": "4",
            "type": "t_string_storage"
          },
          {
            "astId": 18,
            "contract": "contracts/AppointmentRegistry.sol:AppointmentRegistry",
            "label": "status",
            "offset": 0,
            "slot": "5",
            "type": "t_enum(AppointmentStatus)5"
          }
        ],
        "numberOfBytes": "192"
      },
      "t_uint256": {
        "encoding": "inplace",
        "label": "uint256",
        "numberOfBytes": "32"
      }
    }
  }
}