{
  "address": "0x1f9eDf583c35099d76b3859F8676976c3D240181",
  "abi": [
    {
      "anonymous": false,
      "inputs": [
        {
          "indexed": false,
          "internalType": "address",
          "name": "patientAddress",
          "type": "address"
        },
        {
          "indexed": false,
          "internalType": "address",
          "name": "doctorAddress",
          "type": "address"
        }
      ],
      "name": "AccessGranted",
      "type": "event"
    },
    {
      "anonymous": false,
      "inputs": [
        {
          "indexed": false,
          "internalType": "address",
          "name": "patientAddress",
          "type": "address"
        },
        {
          "indexed": false,
          "internalType": "address",
          "name": "doctorAddress",
          "type": "address"
        }
      ],
      "name": "AccessRevoked",
      "type": "event"
    },
    {
      "anonymous": false,
      "inputs": [
        {
          "indexed": false,
          "internalType": "address",
          "name": "doctorAddress",
          "type": "address"
        },
        {
          "indexed": false,
          "internalType": "string",
          "name": "name",
          "type": "string"
        },
        {
          "indexed": false,
          "internalType": "string",
          "name": "specialization",
          "type": "string"
        }
      ],
      "name": "DoctorRegistered",
      "type": "event"
    },
    {
      "anonymous": false,
      "inputs": [
        {
          "indexed": false,
          "internalType": "address",
          "name": "patientAddress",
          "type": "address"
        },
        {
          "indexed": false,
          "internalType": "string",
          "name": "phone",
          "type": "string"
        },
        {
          "indexed": false,
          "internalType": "string",
          "name": "email",
          "type": "string"
        }
      ],
      "name": "HealthDetailsUpdated",
      "type": "event"
    },
    {
      "anonymous": false,
      "inputs": [
        {
          "indexed": true,
          "internalType": "address",
          "name": "patientAddress",
          "type": "address"
        },
        {
          "indexed": false,
          "internalType": "string",
          "name": "recordType",
          "type": "string"
        },
        {
          "indexed": false,
          "internalType": "string",
          "name": "description",
          "type": "string"
        }
      ],
      "name": "MedicalRecordAdded",
      "type": "event"
    },
    {
      "anonymous": false,
      "inputs": [
        {
          "indexed": false,
          "internalType": "address",
          "name": "patientAddress",
          "type": "address"
        },
        {
          "indexed": false,
          "internalType": "string",
          "name": "name",
          "type": "string"
        },
        {
          "indexed": false,
          "internalType": "uint256",
          "name": "age",
          "type": "uint256"
        }
      ],
      "name": "PatientRegistered",
      "type": "event"
    },
    {
      "inputs": [
        {
          "internalType": "address",
          "name": "patientAddress",
          "type": "address"
        },
        {
          "internalType": "string",
          "name": "_recordType",
          "type": "string"
        },
        {
          "internalType": "string",
          "name": "_description",
          "type": "string"
        },
        {
          "internalType": "string",
          "name": "_date",
          "type": "string"
        },
        {
          "internalType": "string",
          "name": "_doctorName",
          "type": "string"
        }
      ],
      "name": "addMedicalRecord",
      "outputs": [],
      "stateMutability": "nonpayable",
      "type": "function"
    },
    {
      "inputs": [
        {
          "internalType": "string",
          "name": "_allergies",
          "type": "string"
        },
        {
          "internalType": "string",
          "name": "_insurance",
          "type": "string"
        }
      ],
      "name": "completeRegistration",
      "outputs": [],
      "stateMutability": "nonpayable",
      "type": "function"
    },
    {
      "inputs": [
        {
          "internalType": "address",
          "name": "",
          "type": "address"
        }
      ],
      "name": "doctors",
      "outputs": [
        {
          "internalType": "string",
          "name": "name",
          "type": "string"
        },
        {
          "internalType": "string",
          "name": "specialization",
          "type": "string"
        },
        {
          "internalType": "bool",
          "name": "isRegistered",
          "type": "bool"
        }
      ],
      "stateMutability": "view",
      "type": "function"
    },
    {
      "inputs": [
        {
          "internalType": "address",
          "name": "doctorAddress",
          "type": "address"
        }
      ],
      "name": "getAccessiblePatientsWithDetails",
      "outputs": [
        {
          "components": [
            {
              "internalType": "address",
              "name": "patientAddress",
              "type": "address"
            },
            {
              "internalType": "string",
              "name": "name",
              "type": "string"
            },
            {
              "internalType": "uint256",
              "name": "age",
              "type": "uint256"
            },
            {
              "internalType": "string",
              "name": "phone",
              "type": "string"
            },
            {
              "internalType": "string",
              "name": "email",
              "type": "string"
            }
          ],
          "internalType": "struct PatientRegistry.PatientDetails[]",
          "name": "",
          "type": "tuple[]"
        }
      ],
      "stateMutability": "view",
      "type": "function"
    },
    {
      "inputs": [
        {
          "internalType": "address",
          "name": "doctorAddress",
          "type": "address"
        }
      ],
      "name": "getDoctorDetails",
      "outputs": [
        {
          "internalType": "string",
          "name": "",
          "type": "string"
        },
        {
          "internalType": "string",
          "name": "",
          "type": "string"
        }
      ],
      "stateMutability": "view",
      "type": "function"
    },
    {
      "inputs": [
        {
          "internalType": "address",
          "name": "patientAddress",
          "type": "address"
        }
      ],
      "name": "getGrantedDoctorsWithDetails",
      "outputs": [
        {
          "components": [
            {
              "internalType": "address",
              "name": "doctorAddress",
              "type": "address"
            },
            {
              "internalType": "string",
              "name": "name",
              "type": "string"
            },
            {
              "internalType": "string",
              "name": "specialization",
              "type": "string"
            }
          ],
          "internalType": "struct PatientRegistry.DoctorDetails[]",
          "name": "",
          "type": "tuple[]"
        }
      ],
      "stateMutability": "view",
      "type": "function"
    },
    {
      "inputs": [
        {
          "internalType": "address",
          "name": "_patient",
          "type": "address"
        }
      ],
      "name": "getMedicalHistory",
      "outputs": [
        {
          "internalType": "string[]",
          "name": "recordTypes",
          "type": "string[]"
        },
        {
          "internalType": "string[]",
          "name": "descriptions",
          "type": "string[]"
        },
        {
          "internalType": "string[]",
          "name": "dates",
          "type": "string[]"
        },
        {
          "internalType": "string[]",
          "name": "doctorNames",
          "type": "string[]"
        }
      ],
      "stateMutability": "view",
      "type": "function"
    },
    {
      "inputs": [
        {
          "internalType": "address",
          "name": "patientAddress",
          "type": "address"
        }
      ],
      "name": "getPatientInfo",
      "outputs": [
        {
          "internalType": "string",
          "name": "name",
          "type": "string"
        },
        {
          "internalType": "uint256",
          "name": "age",
          "type": "uint256"
        },
        {
          "internalType": "string",
          "name": "phone",
          "type": "string"
        },
        {
          "internalType": "string",
          "name": "email",
          "type": "string"
        }
      ],
      "stateMutability": "view",
      "type": "function"
    },
    {
      "inputs": [
        {
          "internalType": "address",
          "name": "patientAddress",
          "type": "address"
        }
      ],
      "name": "getPatientMedicalHistory",
      "outputs": [
        {
          "components": [
            {
              "internalType": "string",
              "name": "recordType",
              "type": "string"
            },
            {
              "internalType": "string",
              "name": "description",
              "type": "string"
            },
            {
              "internalType": "string",
              "name": "date",
              "type": "string"
            },
            {
              "internalType": "string",
              "name": "doctorName",
              "type": "string"
            }
          ],
          "internalType": "struct PatientRegistry.MedicalRecordData[]",
          "name": "",
          "type": "tuple[]"
        }
      ],
      "stateMutability": "view",
      "type": "function"
    },
    {
      "inputs": [
        {
          "internalType": "address",
          "name": "patientAddress",
          "type": "address"
        }
      ],
      "name": "getPersonalHealthDetails",
      "outputs": [
        {
          "internalType": "string",
          "name": "",
          "type": "string"
        },
        {
          "internalType": "string",
          "name": "",
          "type": "string"
        }
      ],
      "stateMutability": "view",
      "type": "function"
    },
    {
      "inputs": [
        {
          "internalType": "address",
          "name": "_doctor",
          "type": "address"
        }
      ],
      "name": "grantAccess",
      "outputs": [],
      "stateMutability": "nonpayable",
      "type": "function"
    },
    {
      "inputs": [
        {
          "internalType": "address",
          "name": "doctorAddress",
          "type": "address"
        }
      ],
      "name": "isDoctorRegistered",
      "outputs": [
        {
          "internalType": "bool",
          "name": "",
          "type": "bool"
        }
      ],
      "stateMutability": "view",
      "type": "function"
    },
    {
      "inputs": [
        {
          "internalType": "address",
          "name": "patientAddress",
          "type": "address"
        }
      ],
      "name": "isPatientRegistered",
      "outputs": [
        {
          "internalType": "bool",
          "name": "",
          "type": "bool"
        }
      ],
      "stateMutability": "view",
      "type": "function"
    },
    {
      "inputs": [
        {
          "internalType": "address",
          "name": "",
          "type": "address"
        }
      ],
      "name": "patients",
      "outputs": [
        {
          "internalType": "string",
          "name": "name",
          "type": "string"
        },
        {
          "internalType": "uint256",
          "name": "age",
          "type": "uint256"
        },
        {
          "internalType": "string",
          "name": "phone",
          "type": "string"
        },
        {
          "internalType": "string",
          "name": "email",
          "type": "string"
        },
        {
          "internalType": "uint256",
          "name": "medicalHistorySize",
          "type": "uint256"
        },
        {
          "components": [
            {
              "internalType": "string",
              "name": "allergies",
              "type": "string"
            },
            {
              "internalType": "string",
              "name": "insurance",
              "type": "string"
            }
          ],
          "internalType": "struct PatientRegistry.PersonalHealthDetails",
          "name": "personalDetails",
          "type": "tuple"
        },
        {
          "internalType": "string",
          "name": "allergies",
          "type": "string"
        },
        {
          "internalType": "string",
          "name": "insurance",
          "type": "string"
        },
        {
          "internalType": "bool",
          "name": "isRegistered",
          "type": "bool"
        }
      ],
      "stateMutability": "view",
      "type": "function"
    },
    {
      "inputs": [
        {
          "internalType": "string",
          "name": "_name",
          "type": "string"
        },
        {
          "internalType": "string",
          "name": "_specialization",
          "type": "string"
        }
      ],
      "name": "registerDoctor",
      "outputs": [],
      "stateMutability": "nonpayable",
      "type": "function"
    },
    {
      "inputs": [
        {
          "internalType": "string",
          "name": "_name",
          "type": "string"
        },
        {
          "internalType": "uint256",
          "name": "_age",
          "type": "uint256"
        },
        {
          "internalType": "string",
          "name": "_phone",
          "type": "string"
        },
        {
          "internalType": "string",
          "name": "_email",
          "type": "string"
        }
      ],
      "name": "registerPatient",
      "outputs": [],
      "stateMutability": "nonpayable",
      "type": "function"
    },
    {
      "inputs": [
        {
          "internalType": "address",
          "name": "_doctor",
          "type": "address"
        }
      ],
      "name": "revokeAccess",
      "outputs": [],
      "stateMutability": "nonpayable",
      "type": "function"
    }
  ],
  "transactionHash": "0xd0c3e63dab29b30d20e6c95b9dc252b532e3a02be5bc4afc3fa0ba1beded8c5b",
  "args": [],
  "numDeployments": 2,
  "solcInputHash": "b054ca001579a5bc60cbc2fe940cc7f9",
  "bytecode": "0x608060405234801561001057600080fd5b506131a0806100206000396000f3fe608060405234801561001057600080fd5b506004361061010b5760003560e01c806385e68531116100a2578063bfaf185a11610071578063bfaf185a146102a6578063c432095a146102c6578063d002f2ce146102d9578063e3da7a58146102ec578063fa2323d21461030c57600080fd5b806385e685311461023d578063a9583c2214610250578063afbf6a7b14610272578063bab90dbd1461028557600080fd5b80635f3269c6116100de5780635f3269c61461019c57806378550390146101bc57806380b6b1b8146101fb578063833b46bb1461022a57600080fd5b80630869cfbc146101105780630ae5e739146101415780634b426178146101565780635986de6114610179575b600080fd5b61012361011e3660046127f1565b61031f565b60405161013899989796959493929190612859565b60405180910390f35b61015461014f3660046127f1565b61073e565b005b6101696101643660046127f1565b61089b565b6040516101389493929190612921565b61018c6101873660046127f1565b610abd565b60405161013894939291906129c3565b6101af6101aa3660046127f1565b610fb8565b6040516101389190612a10565b6101eb6101ca3660046127f1565b6001600160a01b031660009081526001602052604090206002015460ff1690565b6040519015158152602001610138565b6101eb6102093660046127f1565b6001600160a01b03166000908152602081905260409020600a015460ff1690565b610154610238366004612b4f565b6112cb565b61015461024b3660046127f1565b6113d4565b61026361025e3660046127f1565b61177b565b60405161013893929190612bb3565b610154610280366004612beb565b6118b0565b6102986102933660046127f1565b611b00565b604051610138929190612ca9565b6102b96102b43660046127f1565b611ca6565b6040516101389190612cd7565b6102986102d43660046127f1565b6120ef565b6101546102e7366004612b4f565b612273565b6102ff6102fa3660046127f1565b612352565b6040516101389190612d8b565b61015461031a366004612e39565b6126d9565b60006020819052908152604090208054819061033a90612ecb565b80601f016020809104026020016040519081016040528092919081815260200182805461036690612ecb565b80156103b35780601f10610388576101008083540402835291602001916103b3565b820191906000526020600020905b81548152906001019060200180831161039657829003601f168201915b5050505050908060010154908060020180546103ce90612ecb565b80601f01602080910402602001604051908101604052809291908181526020018280546103fa90612ecb565b80156104475780601f1061041c57610100808354040283529160200191610447565b820191906000526020600020905b81548152906001019060200180831161042a57829003601f168201915b50505050509080600301805461045c90612ecb565b80601f016020809104026020016040519081016040528092919081815260200182805461048890612ecb565b80156104d55780601f106104aa576101008083540402835291602001916104d5565b820191906000526020600020905b8154815290600101906020018083116104b857829003601f168201915b5050505050908060050154908060060160405180604001604052908160008201805461050090612ecb565b80601f016020809104026020016040519081016040528092919081815260200182805461052c90612ecb565b80156105795780601f1061054e57610100808354040283529160200191610579565b820191906000526020600020905b81548152906001019060200180831161055c57829003601f168201915b5050505050815260200160018201805461059290612ecb565b80601f01602080910402602001604051908101604052809291908181526020018280546105be90612ecb565b801561060b5780601f106105e05761010080835404028352916020019161060b565b820191906000526020600020905b8154815290600101906020018083116105ee57829003601f168201915b5050505050815250509080600801805461062490612ecb565b80601f016020809104026020016040519081016040528092919081815260200182805461065090612ecb565b801561069d5780601f106106725761010080835404028352916020019161069d565b820191906000526020600020905b81548152906001019060200180831161068057829003601f168201915b5050505050908060090180546106b290612ecb565b80601f01602080910402602001604051908101604052809291908181526020018280546106de90612ecb565b801561072b5780601f106107005761010080835404028352916020019161072b565b820191906000526020600020905b81548152906001019060200180831161070e57829003601f168201915b505050600a909301549192505060ff1689565b336000908152602081905260409020600a015460ff166107795760405162461bcd60e51b815260040161077090612f05565b60405180910390fd5b6001600160a01b03811660009081526001602052604090206002015460ff166107b45760405162461bcd60e51b815260040161077090612f3c565b3360009081526002602090815260408083206001600160a01b038516845290915290205460ff16610898573360008181526002602090815260408083206001600160a01b038616808552908352818420805460ff1916600190811790915585855260038452828520805480830182559086528486200180546001600160a01b03199081168417909155828652600485528386208054928301815586529484902001805490941685179093558051938452908301919091527f9f520b3bfc56d06f7065d10b4683b3f57ac8895d5026cd176dee95ce1454cb8d91015b60405180910390a15b50565b6001600160a01b0381166000908152602081905260408120600a0154606091908290819060ff166108de5760405162461bcd60e51b815260040161077090612f05565b6001600160a01b03851660009081526020819052604090206001810154815482919060028301906003840190849061091590612ecb565b80601f016020809104026020016040519081016040528092919081815260200182805461094190612ecb565b801561098e5780601f106109635761010080835404028352916020019161098e565b820191906000526020600020905b81548152906001019060200180831161097157829003601f168201915b505050505093508180546109a190612ecb565b80601f01602080910402602001604051908101604052809291908181526020018280546109cd90612ecb565b8015610a1a5780601f106109ef57610100808354040283529160200191610a1a565b820191906000526020600020905b8154815290600101906020018083116109fd57829003601f168201915b50505050509150808054610a2d90612ecb565b80601f0160208091040260200160405190810160405280929190818152602001828054610a5990612ecb565b8015610aa65780601f10610a7b57610100808354040283529160200191610aa6565b820191906000526020600020905b815481529060010190602001808311610a8957829003601f168201915b505050505090509450945094509450509193509193565b6060808080336001600160a01b0386161480610afc57506001600160a01b038516600090815260026020908152604080832033845290915290205460ff165b610b6e5760405162461bcd60e51b815260206004820152603860248201527f4e6f7420617574686f72697a656420746f20616363657373207468697320706160448201527f7469656e742773206d65646963616c20686973746f72792e00000000000000006064820152608401610770565b6001600160a01b0385166000908152602081905260409020600501548067ffffffffffffffff811115610ba357610ba3612aac565b604051908082528060200260200182016040528015610bd657816020015b6060815260200190600190039081610bc15790505b5094508067ffffffffffffffff811115610bf257610bf2612aac565b604051908082528060200260200182016040528015610c2557816020015b6060815260200190600190039081610c105790505b5093508067ffffffffffffffff811115610c4157610c41612aac565b604051908082528060200260200182016040528015610c7457816020015b6060815260200190600190039081610c5f5790505b5092508067ffffffffffffffff811115610c9057610c90612aac565b604051908082528060200260200182016040528015610cc357816020015b6060815260200190600190039081610cae5790505b50915060005b81811015610faf576001600160a01b038716600090815260208181526040808320848452600401909152902080548190610d0290612ecb565b80601f0160208091040260200160405190810160405280929190818152602001828054610d2e90612ecb565b8015610d7b5780601f10610d5057610100808354040283529160200191610d7b565b820191906000526020600020905b815481529060010190602001808311610d5e57829003601f168201915b5050505050878381518110610d9257610d92612f73565b6020026020010181905250806001018054610dac90612ecb565b80601f0160208091040260200160405190810160405280929190818152602001828054610dd890612ecb565b8015610e255780601f10610dfa57610100808354040283529160200191610e25565b820191906000526020600020905b815481529060010190602001808311610e0857829003601f168201915b5050505050868381518110610e3c57610e3c612f73565b6020026020010181905250806002018054610e5690612ecb565b80601f0160208091040260200160405190810160405280929190818152602001828054610e8290612ecb565b8015610ecf5780601f10610ea457610100808354040283529160200191610ecf565b820191906000526020600020905b815481529060010190602001808311610eb257829003601f168201915b5050505050858381518110610ee657610ee6612f73565b6020026020010181905250806003018054610f0090612ecb565b80601f0160208091040260200160405190810160405280929190818152602001828054610f2c90612ecb565b8015610f795780601f10610f4e57610100808354040283529160200191610f79565b820191906000526020600020905b815481529060010190602001808311610f5c57829003601f168201915b5050505050848381518110610f9057610f90612f73565b6020026020010181905250508080610fa790612f9f565b915050610cc9565b50509193509193565b6001600160a01b0381166000908152602081905260409020600a015460609060ff16610ff65760405162461bcd60e51b815260040161077090612f05565b6001600160a01b03821660009081526003602090815260408083208054825181850281018501909352808352919290919083018282801561106057602002820191906000526020600020905b81546001600160a01b03168152600190910190602001808311611042575b505050505090506000815167ffffffffffffffff81111561108357611083612aac565b6040519080825280602002602001820160405280156110e157816020015b6110ce604051806060016040528060006001600160a01b0316815260200160608152602001606081525090565b8152602001906001900390816110a15790505b50905060005b82518110156112c357600083828151811061110457611104612f73565b602002602001015190506040518060600160405280826001600160a01b0316815260200160016000846001600160a01b03166001600160a01b03168152602001908152602001600020600001805461115b90612ecb565b80601f016020809104026020016040519081016040528092919081815260200182805461118790612ecb565b80156111d45780601f106111a9576101008083540402835291602001916111d4565b820191906000526020600020905b8154815290600101906020018083116111b757829003601f168201915b5050505050815260200160016000846001600160a01b03166001600160a01b03168152602001908152602001600020600101805461121190612ecb565b80601f016020809104026020016040519081016040528092919081815260200182805461123d90612ecb565b801561128a5780601f1061125f5761010080835404028352916020019161128a565b820191906000526020600020905b81548152906001019060200180831161126d57829003601f168201915b50505050508152508383815181106112a4576112a4612f73565b60200260200101819052505080806112bb90612f9f565b9150506110e7565b509392505050565b3360009081526001602052604090206002015460ff161561132e5760405162461bcd60e51b815260206004820152601d60248201527f446f63746f7220697320616c726561647920726567697374657265642e0000006044820152606401610770565b6040805160608101825283815260208082018490526001828401819052336000908152915291909120815181906113659082613007565b506020820151600182019061137a9082613007565b50604091820151600291909101805460ff1916911515919091179055517fbc3a5b2aeb1bc52e3d56d3fd3423dd66cea5ecff8ae1f3bd0d75a0e608da7b85906113c8903390859085906130c7565b60405180910390a15050565b336000908152602081905260409020600a015460ff166114065760405162461bcd60e51b815260040161077090612f05565b3360009081526002602090815260408083206001600160a01b038516845290915290205460ff1661146f5760405162461bcd60e51b815260206004820152601360248201527220b1b1b2b9b9903737ba1033b930b73a32b21760691b6044820152606401610770565b3360009081526002602090815260408083206001600160a01b03851684529091528120805460ff191690555b336000908152600360205260409020548110156115e05733600090815260036020526040902080546001600160a01b0384169190839081106114df576114df612f73565b6000918252602090912001546001600160a01b0316036115ce57336000908152600360205260409020805461151690600190613107565b8154811061152657611526612f73565b60009182526020808320909101543383526003909152604090912080546001600160a01b03909216918390811061155f5761155f612f73565b600091825260208083209190910180546001600160a01b0319166001600160a01b0394909416939093179092553381526003909152604090208054806115a7576115a7613120565b600082815260209020810160001990810180546001600160a01b03191690550190556115e0565b806115d881612f9f565b91505061149b565b5060005b6001600160a01b03821660009081526004602052604090205481101561173c576001600160a01b038216600090815260046020526040902080543391908390811061163157611631612f73565b6000918252602090912001546001600160a01b03160361172a576001600160a01b0382166000908152600460205260409020805461167190600190613107565b8154811061168157611681612f73565b60009182526020808320909101546001600160a01b038581168452600490925260409092208054919092169190839081106116be576116be612f73565b600091825260208083209190910180546001600160a01b0319166001600160a01b03948516179055918416815260049091526040902080548061170357611703613120565b600082815260209020810160001990810180546001600160a01b031916905501905561173c565b8061173481612f9f565b9150506115e4565b50604080513381526001600160a01b03831660208201527f825c8be24eb0df19500f63e86c29e7d0d951e73056b889b891d85e40938d9b6e910161088f565b60016020526000908152604090208054819061179690612ecb565b80601f01602080910402602001604051908101604052809291908181526020018280546117c290612ecb565b801561180f5780601f106117e45761010080835404028352916020019161180f565b820191906000526020600020905b8154815290600101906020018083116117f257829003601f168201915b50505050509080600101805461182490612ecb565b80601f016020809104026020016040519081016040528092919081815260200182805461185090612ecb565b801561189d5780601f106118725761010080835404028352916020019161189d565b820191906000526020600020905b81548152906001019060200180831161188057829003601f168201915b5050506002909301549192505060ff1683565b6001600160a01b0385166000908152602081905260409020600a015460ff166118eb5760405162461bcd60e51b815260040161077090612f05565b3360009081526001602052604090206002015460ff166119655760405162461bcd60e51b815260206004820152602f60248201527f596f75206d7573742062652061207265676973746572656420646f63746f722060448201526e3a379030b232103932b1b7b932399760891b6064820152608401610770565b6001600160a01b038516600090815260026020908152604080832033845290915290205460ff16611a00576040805162461bcd60e51b81526020600482015260248101919091527f446f63746f7220646f6573206e6f742068617665207065726d697373696f6e2060448201527f746f20616464207265636f72647320666f7220746869732070617469656e742e6064820152608401610770565b6001600160a01b0385166000908152602081815260408083206005810154825160808101845289815280850189905280840188905260608101879052818652600483019094529190932082519192918190611a5b9082613007565b5060208201516001820190611a709082613007565b5060408201516002820190611a859082613007565b5060608201516003820190611a9a9082613007565b505050600582018054906000611aaf83612f9f565b9190505550866001600160a01b03167ff08ab7ed655dc346058390e310de9c21617f7912327ac9df15adfef4b1b24e9b8787604051611aef929190612ca9565b60405180910390a250505050505050565b6001600160a01b038116600090815260016020526040902060020154606090819060ff16611b405760405162461bcd60e51b815260040161077090612f3c565b6001600160a01b038316600090815260016020526040808220815160608101909252805482908290611b7190612ecb565b80601f0160208091040260200160405190810160405280929190818152602001828054611b9d90612ecb565b8015611bea5780601f10611bbf57610100808354040283529160200191611bea565b820191906000526020600020905b815481529060010190602001808311611bcd57829003601f168201915b50505050508152602001600182018054611c0390612ecb565b80601f0160208091040260200160405190810160405280929190818152602001828054611c2f90612ecb565b8015611c7c5780601f10611c5157610100808354040283529160200191611c7c565b820191906000526020600020905b815481529060010190602001808311611c5f57829003601f168201915b50505091835250506002919091015460ff1615156020918201528151910151909590945092505050565b6001600160a01b03811660009081526001602052604090206002015460609060ff16611ce45760405162461bcd60e51b815260040161077090612f3c565b6001600160a01b038216600090815260046020908152604080832080548251818502810185019093528083529192909190830182828015611d4e57602002820191906000526020600020905b81546001600160a01b03168152600190910190602001808311611d30575b505050505090506000805b8251811015611dd55760026000848381518110611d7857611d78612f73565b6020908102919091018101516001600160a01b0390811683528282019390935260409182016000908120938916815292905290205460ff1615611dc35781611dbf81612f9f565b9250505b80611dcd81612f9f565b915050611d59565b5060008167ffffffffffffffff811115611df157611df1612aac565b604051908082528060200260200182016040528015611e5d57816020015b611e4a6040518060a0016040528060006001600160a01b03168152602001606081526020016000815260200160608152602001606081525090565b815260200190600190039081611e0f5790505b5090506000805b84518110156120e4576000858281518110611e8157611e81612f73565b6020908102919091018101516001600160a01b038082166000908152600284526040808220928d168252919093529091205490915060ff16156120d1576001600160a01b03811660008181526020818152604091829020825160a081019093529282528254908201908390611ef590612ecb565b80601f0160208091040260200160405190810160405280929190818152602001828054611f2190612ecb565b8015611f6e5780601f10611f4357610100808354040283529160200191611f6e565b820191906000526020600020905b815481529060010190602001808311611f5157829003601f168201915b5050505050815260200182600101548152602001826002018054611f9190612ecb565b80601f0160208091040260200160405190810160405280929190818152602001828054611fbd90612ecb565b801561200a5780601f10611fdf5761010080835404028352916020019161200a565b820191906000526020600020905b815481529060010190602001808311611fed57829003601f168201915b5050505050815260200182600301805461202390612ecb565b80601f016020809104026020016040519081016040528092919081815260200182805461204f90612ecb565b801561209c5780601f106120715761010080835404028352916020019161209c565b820191906000526020600020905b81548152906001019060200180831161207f57829003601f168201915b50505050508152508585815181106120b6576120b6612f73565b602002602001018190525083806120cc90612f9f565b945050505b50806120dc81612f9f565b915050611e64565b509095945050505050565b6001600160a01b0381166000908152602081905260409020600a0154606090819060ff1661212f5760405162461bcd60e51b815260040161077090612f05565b6001600160a01b03831660009081526020819052604090206008810180546009830190829061215d90612ecb565b80601f016020809104026020016040519081016040528092919081815260200182805461218990612ecb565b80156121d65780601f106121ab576101008083540402835291602001916121d6565b820191906000526020600020905b8154815290600101906020018083116121b957829003601f168201915b505050505091508080546121e990612ecb565b80601f016020809104026020016040519081016040528092919081815260200182805461221590612ecb565b80156122625780601f1061223757610100808354040283529160200191612262565b820191906000526020600020905b81548152906001019060200180831161224557829003601f168201915b505050505090509250925050915091565b336000908152602081905260409020600a015460ff166122e55760405162461bcd60e51b815260206004820152602760248201527f50617469656e74206d75737420726567697374657220626173696320696e666f604482015266103334b939ba1760c91b6064820152608401610770565b336000908152602081905260409020600881016123028482613007565b50600981016123118382613007565b507f65bfaa8d145d786901dab223a0cefc0bcd8a303521431fe6b451196bb18bf0ab338484604051612345939291906130c7565b60405180910390a1505050565b6001600160a01b0381166000908152602081905260409020600a015460609060ff166123905760405162461bcd60e51b815260040161077090612f05565b6001600160a01b038216600090815260208190526040812060050154908167ffffffffffffffff8111156123c6576123c6612aac565b60405190808252806020026020018201604052801561242257816020015b61240f6040518060800160405280606081526020016060815260200160608152602001606081525090565b8152602001906001900390816123e45790505b50905060005b828110156112c3576001600160a01b0385166000908152602081815260408083208484526004019091529081902081516080810190925280549091908190839061247190612ecb565b80601f016020809104026020016040519081016040528092919081815260200182805461249d90612ecb565b80156124ea5780601f106124bf576101008083540402835291602001916124ea565b820191906000526020600020905b8154815290600101906020018083116124cd57829003601f168201915b5050505050815260200182600101805461250390612ecb565b80601f016020809104026020016040519081016040528092919081815260200182805461252f90612ecb565b801561257c5780601f106125515761010080835404028352916020019161257c565b820191906000526020600020905b81548152906001019060200180831161255f57829003601f168201915b5050505050815260200182600201805461259590612ecb565b80601f01602080910402602001604051908101604052809291908181526020018280546125c190612ecb565b801561260e5780601f106125e35761010080835404028352916020019161260e565b820191906000526020600020905b8154815290600101906020018083116125f157829003601f168201915b5050505050815260200182600301805461262790612ecb565b80601f016020809104026020016040519081016040528092919081815260200182805461265390612ecb565b80156126a05780601f10612675576101008083540402835291602001916126a0565b820191906000526020600020905b81548152906001019060200180831161268357829003601f168201915b50505050508152508383815181106126ba576126ba612f73565b60200260200101819052505080806126d190612f9f565b915050612428565b336000908152602081905260409020600a015460ff161561273c5760405162461bcd60e51b815260206004820152601e60248201527f50617469656e7420697320616c726561647920726567697374657265642e00006044820152606401610770565b336000908152602081905260409020806127568682613007565b50600181018490556002810161276c8482613007565b506003810161277b8382613007565b5060006005820155600a8101805460ff191660011790556040517f096f893428730b9f440cde9930f6fbd450ce2d7ac1f2895f0d869da7376a36d1906127c690339088908890613136565b60405180910390a15050505050565b80356001600160a01b03811681146127ec57600080fd5b919050565b60006020828403121561280357600080fd5b61280c826127d5565b9392505050565b6000815180845260005b818110156128395760208185018101518683018201520161281d565b506000602082860101526020601f19601f83011685010191505092915050565b600061012080835261286d8184018d612813565b90508a60208401528281036040840152612887818b612813565b9050828103606084015261289b818a612813565b905087608084015282810360a08401528651604082526128be6040830182612813565b9050602088015182820360208401526128d78282612813565b9250505082810360c08401526128ed8187612813565b905082810360e08401526129018186612813565b91505061291361010083018415159052565b9a9950505050505050505050565b6080815260006129346080830187612813565b856020840152828103604084015261294c8186612813565b905082810360608401526129608185612813565b979650505050505050565b600082825180855260208086019550808260051b84010181860160005b848110156129b657601f198684030189526129a4838351612813565b98840198925090830190600101612988565b5090979650505050505050565b6080815260006129d6608083018761296b565b82810360208401526129e8818761296b565b905082810360408401526129fc818661296b565b90508281036060840152612960818561296b565b60006020808301818452808551808352604092508286019150828160051b87010184880160005b83811015612a9e57888303603f19018552815180516001600160a01b0316845287810151606089860181905290612a7082870182612813565b91505087820151915084810388860152612a8a8183612813565b968901969450505090860190600101612a37565b509098975050505050505050565b634e487b7160e01b600052604160045260246000fd5b600082601f830112612ad357600080fd5b813567ffffffffffffffff80821115612aee57612aee612aac565b604051601f8301601f19908116603f01168101908282118183101715612b1657612b16612aac565b81604052838152866020858801011115612b2f57600080fd5b836020870160208301376000602085830101528094505050505092915050565b60008060408385031215612b6257600080fd5b823567ffffffffffffffff80821115612b7a57600080fd5b612b8686838701612ac2565b93506020850135915080821115612b9c57600080fd5b50612ba985828601612ac2565b9150509250929050565b606081526000612bc66060830186612813565b8281036020840152612bd88186612813565b9150508215156040830152949350505050565b600080600080600060a08688031215612c0357600080fd5b612c0c866127d5565b9450602086013567ffffffffffffffff80821115612c2957600080fd5b612c3589838a01612ac2565b95506040880135915080821115612c4b57600080fd5b612c5789838a01612ac2565b94506060880135915080821115612c6d57600080fd5b612c7989838a01612ac2565b93506080880135915080821115612c8f57600080fd5b50612c9c88828901612ac2565b9150509295509295909350565b604081526000612cbc6040830185612813565b8281036020840152612cce8185612813565b95945050505050565b60006020808301818452808551808352604092508286019150828160051b87010184880160005b83811015612a9e57888303603f19018552815180516001600160a01b031684528781015160a089860181905290612d3782870182612813565b915050878201518886015260608083015186830382880152612d598382612813565b9250505060808083015192508582038187015250612d778183612813565b968901969450505090860190600101612cfe565b60006020808301818452808551808352604092508286019150828160051b87010184880160005b83811015612a9e57603f19898403018552815160808151818652612dd882870182612813565b915050888201518582038a870152612df08282612813565b9150508782015185820389870152612e088282612813565b91505060608083015192508582038187015250612e258183612813565b968901969450505090860190600101612db2565b60008060008060808587031215612e4f57600080fd5b843567ffffffffffffffff80821115612e6757600080fd5b612e7388838901612ac2565b9550602087013594506040870135915080821115612e9057600080fd5b612e9c88838901612ac2565b93506060870135915080821115612eb257600080fd5b50612ebf87828801612ac2565b91505092959194509250565b600181811c90821680612edf57607f821691505b602082108103612eff57634e487b7160e01b600052602260045260246000fd5b50919050565b6020808252601a908201527f50617469656e74206973206e6f7420726567697374657265642e000000000000604082015260600190565b60208082526019908201527f446f63746f72206973206e6f7420726567697374657265642e00000000000000604082015260600190565b634e487b7160e01b600052603260045260246000fd5b634e487b7160e01b600052601160045260246000fd5b600060018201612fb157612fb1612f89565b5060010190565b601f82111561300257600081815260208120601f850160051c81016020861015612fdf5750805b601f850160051c820191505b81811015612ffe57828155600101612feb565b5050505b505050565b815167ffffffffffffffff81111561302157613021612aac565b6130358161302f8454612ecb565b84612fb8565b602080601f83116001811461306a57600084156130525750858301515b600019600386901b1c1916600185901b178555612ffe565b600085815260208120601f198616915b828110156130995788860151825594840194600190910190840161307a565b50858210156130b75787850151600019600388901b60f8161c191681555b5050505050600190811b01905550565b6001600160a01b03841681526060602082018190526000906130eb90830185612813565b82810360408401526130fd8185612813565b9695505050505050565b8181038181111561311a5761311a612f89565b92915050565b634e487b7160e01b600052603160045260246000fd5b6001600160a01b038416815260606020820181905260009061315a90830185612813565b905082604083015294935050505056fea26469706673582212204b0af57d698b574623e32d7e90f71c9cb3189460a8aafc1e7a798b01eacd549864736f6c63430008140033",
  "devdoc": {
    "kind": "dev",
    "methods": {},
    "version": 1
  },
  "userdoc": {
    "kind": "user",
    "methods": {},
    "version": 1
  },
  "storageLayout": {
    "storage": [
      {
        "astId": 80,
        "contract": "contracts/PatientRegistry.sol:PatientRegistry",
        "label": "patients",
        "offset": 0,
        "slot": "0",
        "type": "t_mapping(t_address,t_struct(Patient)50_storage)"
      },
      {
        "astId": 85,
        "contract": "contracts/PatientRegistry.sol:PatientRegistry",
        "label": "doctors",
        "offset": 0,
        "slot": "1",
        "type": "t_mapping(t_address,t_struct(Doctor)57_storage)"
      },
      {
        "astId": 91,
        "contract": "contracts/PatientRegistry.sol:PatientRegistry",
        "label": "doctorPermissions",
        "offset": 0,
        "slot": "2",
        "type": "t_mapping(t_address,t_mapping(t_address,t_bool))"
      },
      {
        "astId": 96,
        "contract": "contracts/PatientRegistry.sol:PatientRegistry",
        "label": "grantedDoctors",
        "offset": 0,
        "slot": "3",
        "type": "t_mapping(t_address,t_array(t_address)dyn_storage)"
      },
      {
        "astId": 101,
        "contract": "contracts/PatientRegistry.sol:PatientRegistry",
        "label": "accessiblePatients",
        "offset": 0,
        "slot": "4",
        "type": "t_mapping(t_address,t_array(t_address)dyn_storage)"
      }
    ],
    "types": {
      "t_address": {
        "encoding": "inplace",
        "label": "address",
        "numberOfBytes": "20"
      },
      "t_array(t_address)dyn_storage": {
        "base": "t_address",
        "encoding": "dynamic_array",
        "label": "address[]",
        "numberOfBytes": "32"
      },
      "t_bool": {
        "encoding": "inplace",
        "label": "bool",
        "numberOfBytes": "1"
      },
      "t_mapping(t_address,t_array(t_address)dyn_storage)": {
        "encoding": "mapping",
        "key": "t_address",
        "label": "mapping(address => address[])",
        "numberOfBytes": "32",
        "value": "t_array(t_address)dyn_storage"
      },
      "t_mapping(t_address,t_bool)": {
        "encoding": "mapping",
        "key": "t_address",
        "label": "mapping(address => bool)",
        "numberOfBytes": "32",
        "value": "t_bool"
      },
      "t_mapping(t_address,t_mapping(t_address,t_bool))": {
        "encoding": "mapping",
        "key": "t_address",
        "label": "mapping(address => mapping(address => bool))",
        "numberOfBytes": "32",
        "value": "t_mapping(t_address,t_bool)"
      },
      "t_mapping(t_address,t_struct(Doctor)57_storage)": {
        "encoding": "mapping",
        "key": "t_address",
        "label": "mapping(address => struct PatientRegistry.Doctor)",
        "numberOfBytes": "32",
        "value": "t_struct(Doctor)57_storage"
      },
      "t_mapping(t_address,t_struct(Patient)50_storage)": {
        "encoding": "mapping",
        "key": "t_address",
        "label": "mapping(address => struct PatientRegistry.Patient)",
        "numberOfBytes": "32",
        "value": "t_struct(Patient)50_storage"
      },
      "t_mapping(t_uint256,t_struct(MedicalRecord)11_storage)": {
        "encoding": "mapping",
        "key": "t_uint256",
        "label": "mapping(uint256 => struct PatientRegistry.MedicalRecord)",
        "numberOfBytes": "32",
        "value": "t_struct(MedicalRecord)11_storage"
      },
      "t_string_storage": {
        "encoding": "bytes",
        "label": "string",
        "numberOfBytes": "32"
      },
      "t_struct(Doctor)57_storage": {
        "encoding": "inplace",
        "label": "struct PatientRegistry.Doctor",
        "members": [
          {
            "astId": 52,
            "contract": "contracts/PatientRegistry.sol:PatientRegistry",
            "label": "name",
            "offset": 0,
            "slot": "0",
            "type": "t_string_storage"
          },
          {
            "astId": 54,
            "contract": "contracts/PatientRegistry.sol:PatientRegistry",
            "label": "specialization",
            "offset": 0,
            "slot": "1",
            "type": "t_string_storage"
          },
          {
            "astId": 56,
            "contract": "contracts/PatientRegistry.sol:PatientRegistry",
            "label": "isRegistered",
            "offset": 0,
            "slot": "2",
            "type": "t_bool"
          }
        ],
        "numberOfBytes": "96"
      },
      "t_struct(MedicalRecord)11_storage": {
        "encoding": "inplace",
        "label": "struct PatientRegistry.MedicalRecord",
        "members": [
          {
            "astId": 4,
            "contract": "contracts/PatientRegistry.sol:PatientRegistry",
            "label": "recordType",
            "offset": 0,
            "slot": "0",
            "type": "t_string_storage"
          },
          {
            "astId": 6,
            "contract": "contracts/PatientRegistry.sol:PatientRegistry",
            "label": "description",
            "offset": 0,
            "slot": "1",
            "type": "t_string_storage"
          },
          {
            "astId": 8,
            "contract": "contracts/PatientRegistry.sol:PatientRegistry",
            "label": "date",
            "offset": 0,
            "slot": "2",
            "type": "t_string_storage"
          },
          {
            "astId": 10,
            "contract": "contracts/PatientRegistry.sol:PatientRegistry",
            "label": "doctorName",
            "offset": 0,
            "slot": "3",
            "type": "t_string_storage"
          }
        ],
        "numberOfBytes": "128"
      },
      "t_struct(Patient)50_storage": {
        "encoding": "inplace",
        "label": "struct PatientRegistry.Patient",
        "members": [
          {
            "astId": 27,
            "contract": "contracts/PatientRegistry.sol:PatientRegistry",
            "label": "name",
            "offset": 0,
            "slot": "0",
            "type": "t_string_storage"
          },
          {
            "astId": 29,
            "contract": "contracts/PatientRegistry.sol:PatientRegistry",
            "label": "age",
            "offset": 0,
            "slot": "1",
            "type": "t_uint256"
          },
          {
            "astId": 31,
            "contract": "contracts/PatientRegistry.sol:PatientRegistry",
            "label": "phone",
            "offset": 0,
            "slot": "2",
            "type": "t_string_storage"
          },
          {
            "astId": 33,
            "contract": "contracts/PatientRegistry.sol:PatientRegistry",
            "label": "email",
            "offset": 0,
            "slot": "3",
            "type": "t_string_storage"
          },
          {
            "astId": 38,
            "contract": "contracts/PatientRegistry.sol:PatientRegistry",
            "label": "medicalHistory",
            "offset": 0,
            "slot": "4",
            "type": "t_mapping(t_uint256,t_struct(MedicalRecord)11_storage)"
          },
          {
            "astId": 40,
            "contract": "contracts/PatientRegistry.sol:PatientRegistry",
            "label": "medicalHistorySize",
            "offset": 0,
            "slot": "5",
            "type": "t_uint256"
          },
          {
            "astId": 43,
            "contract": "contracts/PatientRegistry.sol:PatientRegistry",
            "label": "personalDetails",
            "offset": 0,
            "slot": "6",
            "type": "t_struct(PersonalHealthDetails)25_storage"
          },
          {
            "astId": 45,
            "contract": "contracts/PatientRegistry.sol:PatientRegistry",
            "label": "allergies",
            "offset": 0,
            "slot": "8",
            "type": "t_string_storage"
          },
          {
            "astId": 47,
            "contract": "contracts/PatientRegistry.sol:PatientRegistry",
            "label": "insurance",
            "offset": 0,
            "slot": "9",
            "type": "t_string_storage"
          },
          {
            "astId": 49,
            "contract": "contracts/PatientRegistry.sol:PatientRegistry",
            "label": "isRegistered",
            "offset": 0,
            "slot": "10",
            "type": "t_bool"
          }
        ],
        "numberOfBytes": "352"
      },
      "t_struct(PersonalHealthDetails)25_storage": {
        "encoding": "inplace",
        "label": "struct PatientRegistry.PersonalHealthDetails",
        "members": [
          {
            "astId": 22,
            "contract": "contracts/PatientRegistry.sol:PatientRegistry",
            "label": "allergies",
            "offset": 0,
            "slot": "0",
            "type": "t_string_storage"
          },
          {
            "astId": 24,
            "contract": "contracts/PatientRegistry.sol:PatientRegistry",
            "label": "insurance",
            "offset": 0,
            "slot": "1",
            "type": "t_string_storage"
          }
        ],
        "numberOfBytes": "64"
      },
      "t_uint256": {
        "encoding": "inplace",
        "label": "uint256",
        "numberOfBytes": "32"
      }
    }
  }
}